:020000040800F2
:10000000F00D0020712400089104000893040008FA
:10001000970400089B0400089F04000800000000EB
:10002000000000000000000000000000A304000821
:10003000A504000800000000A7040008A9040008A7
:100040008B2400088B2400088B2400088B240008D4
:100050008B2400088B240008A31400088B240008BC
:10006000C5140008171400085D1400088B2400084C
:100070008B2400088B2400088B2400088B240008A4
:100080008B2400088B2400088B2400088B24000894
:100090008B2400088B2400088B2400088B24000884
:1000A0008B2400088B2400088B2400088B24000874
:1000B0008B2400088B2400088B2400088B24000864
:1000C0008B2400088B2400088B2400088B24000854
:1000D0008B240008AB0400088B2400088B24000844
:1000E000E71400088B2400088B2400088B240008E8
:1000F0008B2400088B2400088B2400088B24000824
:100100008B2400088B2400088B2400088B24000813
:100110008B2400088B2400088B2400088B24000803
:100120008B2400088B2400088B2400088B240008F3
:1001300000F002F800F05EF80AA090E8000C82449B
:100140008344AAF10107DA4501D100F053F8AFF278
:10015000090EBAE80F0013F0010F18BFFB1A43F0A5
:10016000010318473C4700005C47000010F8013BC2
:100170000A4413F0030408BF10F8014B1D1108BF17
:1001800010F8015B641E05D010F8016B641E01F8C5
:10019000016BF9D1002D15D010F8014B03F00C03C1
:1001A0000C2BA1EB04040ABF10F8013BA4EB831451
:1001B000A4EB032405F1010314F8016B5B1E01F8A5
:1001C000016BF9D5914238BF10F8013BD1D370478C
:1001D0000023002400250026103A28BF78C1FBD850
:1001E000520728BF30C148BF0B6070471FB51FBD05
:1001F00010B510BD02F0DFFF1146FFF7F7FF00F06A
:1002000009F802F0FDFF03B4FFF7F2FF03BC03F0AF
:1002100005F8000008B500240020009002F0BEF8A8
:100220004FF47A7002F093F94FF4A06002F040F9B5
:100230004FF4E13001F088F900F052FA00F07EFA54
:1002400001F016FA00F0C8FF00F05DFE01F052F870
:1002500001F0F2F95A21824800F04AFBFEE000204A
:1002600000F092FA7F4908707F480068012800D1A9
:1002700008707D480068022801D17A4908707A48E0
:100280000068032801D1774908707748006804287E
:1002900001D17449087074480068052801D171497A
:1002A00008707048007884420DD000F02CFE0120C8
:1002B0006E4908606E49C1F8A00140216D4802F006
:1002C00074FA68480478062C7ED2DFE804F003A2B2
:1002D000A8AEB6BE04220021084600F011FF052298
:1002E0000021102000F00CFF102363A20021202029
:1002F00000F0E3FE06220021302000F001FF002282
:100300001146402000F0FCFE10235CA2002150208A
:1003100000F0D3FE07220021602000F0F1FE002251
:100320001146702000F0ECFE04220221002000F0B3
:10033000E7FE05220221102000F0E2FE102350A269
:100340000221202000F0B9FE0C220221302000F012
:10035000D7FE0D220221402000F0D2FE0E22022103
:10036000502000F0CDFE0F220221602000F0C8FED8
:1003700004221146002000F0C3FE052204211020B3
:1003800000F0BEFE10233FA20421202000F095FEC5
:100390000C220421302000F0B3FE0D220421402065
:1003A00000F0AEFE10220421502000F0A9FE112220
:1003B0000421602000F0A4FE04220621002000F0A9
:1003C0009FFE0522062100E047E0102000F098FE85
:1003D00010232DA20621202000F06FFE0822062106
:1003E000302000F08DFE09220621402000F088FE1A
:1003F0000A220621502000F083FE0B2206216020F5
:1004000000F07EFE642002F006F800201F4908601C
:1004100023E001F01BFB01201C4908601DE001F0F6
:100420000CFC01201949086017E001F01BFD01F0E8
:1004300069FD0020154908600FE001F08CFE01F015
:10044000BAFE00201149086007E001F0E3FE01F068
:1004500011FF00200D49086000BF00BFFFE600004B
:10046000780700200100002024000020B40122426F
:1004700000802142000C0140313A0000323A000075
:10048000333A0000343A0000353A000098812142A6
:10049000704700BFFEE700BFFEE700BFFEE700BFFA
:1004A000FEE7704770477047704710B5002440F270
:1004B00025510F4802F0AAFDC0B10D4802F026FDFB
:1004C000C4B240F225510A4802F0CAFD0A2C0DD0F0
:1004D000084801780078401C064A107006484454C9
:1004E00001200649087000201146087010BD000068
:1004F000003801400C0000205807002000000020B8
:100500000CB50020019000906C48006840F48030E9
:100510006A49086000BF6948006800F40030009034
:100520000198401C0190009818B90198B0F5A06F8F
:10053000F1D16248006800F4003010B10120009051
:1005400001E0002000900098012843D15C48006839
:1005500040F010005A4908600846006820F0030087
:1005600008600846006840F0020008605348406890
:10057000524948600846406848600846406840F470
:10058000806048600846406820F47C104860084657
:10059000406840F4E81048600846006840F0807009
:1005A000086000BF4548006800F000700028F9D0DE
:1005B0004248406820F003004049486008464068CF
:1005C00040F00200486000BF3C48406800F00C006A
:1005D0000828F9D10CBD10B5FFF792FF10BD10B57A
:1005E0003648006840F00100344908600846406819
:1005F000344908403149486008460068324908409B
:100600002E4908600846006820F4802008600846EB
:10061000406820F4FE0048604FF41F008860FFF738
:10062000DAFF4FF000602949086010BD10B50021C5
:1006300000200022214B5B6803F00C0121B104294A
:1006400006D0082928D107E0214B224C236027E05F
:100650001F4B204C236023E0184B5B6803F47010A1
:10066000164B5B6803F48032022303EB904022B9FF
:10067000194B4343174C23600DE0104B5B6803F4A8
:10068000003323B1144B4343124C236003E0104B5F
:100690004343104C236003E00D4B0E4C236000BF1E
:1006A00000BF064B5B68C3F303130C4CE15C094BC2
:1006B0001B68CB40074C236010BD000000100240B7
:1006C000002002400000FFF8FFFFF6FE08ED00E00A
:1006D00000127A001000002000093D0014000020E4
:1006E00008B50121182002F06DFA4FF40050ADF862
:1006F000000010208DF8030003208DF802006946E9
:100700000C4801F0A3FF4FF400510A4802F04BF8E7
:100710004020ADF8000010208DF8030003208DF874
:1007200002006946044801F091FF4021024802F0AE
:100730003CF808BD00100140000C014008B5012143
:100740001C2002F03FFA1F20ADF8000048208DF871
:1007500003006946624801F079FF4FF48070ADF8FC
:10076000000048208DF8030069465D4801F06EFFE7
:100770004FF48040ADF8000048208DF80300694632
:10078000584801F063FF08BD10B5044614B10120BC
:10079000554908705448007800287ED002215048FE
:1007A00001F0E7FFB0B14FF480714D4801F0E1FF77
:1007B00080B101214A4801F0DCFF58B14FF480417B
:1007C000484801F0D6FF28B10421454801F0D1FF87
:1007D000002862D10A2001F01EFE00204249087064
:1007E00002213F4801F0C5FF60B940480068401C45
:1007F0003E49086008460068012801DD00200860C5
:10080000012010BD4FF48071354801F0B2FF60B98E
:1008100036480068801C3549086008460068022890
:1008200001DD002008600220EBE701212C4801F0E7
:10083000A0FF60B92D480068C01C2C49086008461C
:100840000068032801DD002008600320D9E74FF489
:100850008041244801F08DFF60B924480068001DE4
:100860002249086008460068042801DD002008606D
:100870000420C6E704211A4801F07BFF68BB1B482F
:100880000068401D1949086008460068052801DD18
:10089000002008600520B4E7FFE70221104801F0BE
:1008A00068FF012819D101020D4801F062FF0128FB
:1008B00013D101210A4801F05CFF01280DD1810309
:1008C000084801F056FF012807D10421044801F02F
:1008D00050FF012801D104490870002091E7000071
:1008E00000080140001001402800002024000020E2
:1008F000F8B504460D46002684B12570E34800682B
:100900008047207802236A462E21E14F3F68B8478E
:1009100020789DF80010884200D101263046F8BDAD
:100920002DE9FC5F824600200190BAF1000F25D02E
:100930009AF8000002236A460621D54C2468A04795
:10094000E0B1012001909DF801B09DF8000040EA5F
:100950000B200FFA80FB584602F0A6FE0646002246
:10096000CC4B02F049FD04464FF06632CA4B03F00F
:1009700023F8804602F05AFCCAF804000198BDE84A
:10098000FC9F2DE9FC5F824600200190BAF1000F28
:1009900025D09AF8000002236A460721BC4C24683F
:1009A000A047E0B1012001909DF801B09DF8000042
:1009B00040EA0B200FFA80FB584602F075FE06460F
:1009C0000022B44B02F018FD04464FF06632B24BE1
:1009D00002F0F2FF804602F029FCCAF808000198F4
:1009E000BDE8FC9F2DE9FC5F824600200190BAF132
:1009F000000F25D09AF8000002236A460821A44C73
:100A00002468A047E0B1012001909DF801B09DF855
:100A1000000040EA0B200FFA80FB584602F044FE2B
:100A2000064600229B4B02F0E7FC04464FF066327C
:100A3000994B02F0C1FF804602F0F8FBCAF80C00A7
:100A40000198BDE8FC9FF8B5044600250020009001
:100A50003CB302236A462421904E3668B04700B367
:100A60008F48216903F09CF9064603F045F9C0B2AE
:100A70008DF800008A48216903F092F9064603F0D8
:100A80003BF9000A8DF801004FF47A7001F0C3FCC5
:100A900002236A4624210020804E3668B04700B108
:100AA00001252846F8BD2DE9F04F89B004464FF0E6
:100AB00000097C49606803F03FF936D879496068DD
:100AC00003F06CFA059003F061F8774A774BCDE9B3
:100AD000060102F03DFE07460022754B02F0D8FBEE
:100AE000824602F0A3FB06466E49606803F056FAA0
:100AF000039003F04BF807466E4A6F4B02F028FE56
:100B0000CDE90401304603F041F80746664A6B4BD5
:100B100002F0BEFB8246DDE9042302F04DFFCDE981
:100B2000060102F083FB81462CE05E49606803F019
:100B300035FA059003F02AF8614A624BCDE90601C7
:100B400002F006FE0746604A604B02F0A1FB8246B7
:100B500002F06CFB06465349606803F01FFA0590EB
:100B600003F014F807465A4A5A4B02F0F1FD564A70
:100B70005242594BCDE9060102F08AFB824602F04F
:100B800055FB81463146A06803F0D6F828D231469D
:100B9000A06803F003FA074602F0F8FFCDE902016E
:100BA000606802F0F3FF82464C4A4D4B02F0D0FDE4
:100BB00007464C4A4C4B02F06BFBCDE90001DDE9E6
:100BC000022302F0C5FD4FF06632484BCDE9040127
:100BD00002F05EFBCDE9060102F028FB054650E07D
:100BE0004846A16803F0A8F828D24946A06803F057
:100BF000D5F9074602F0CAFFCDE90201606802F0AC
:100C0000C5FF07463A4A3B4B02F0A2FD3A4A3B4B2E
:100C1000CDE9000102F03CFB8246DDE9022302F04F
:100C200097FD4FF06632364BCDE9040102F030FB00
:100C3000CDE9060102F0FAFA054622E03146A06845
:100C400003F0ACF983463146484603F0A7F959460C
:100C5000039003F0A5F8824602F098FF02460B4687
:100C6000CDE904010020274902F0C6FB07464FF0FA
:100C700066321E4B02F00CFBCDE9060102F0D6FAFB
:100C80000546284609B0BDE8F08F00002C00002082
:100C900030000020000049406612714034000020FE
:100CA00000FF7F470000D041B81E85EB51B8BE3F22
:100CB00000403D40FCA9F1D24D62703F51B8044064
:100CC0006ABC74931804B63F14AE47E17A544040AE
:100CD0009A9999999999B93F856B414026AD6ADCFB
:100CE000AA0A963F774A23402FA7E13F6626424053
:100CF000437C83D6935E633F1BAC8664CB89EA3F1B
:100D0000666642400000E03F10B54FF48061F9484C
:100D100001F049FD4FF40061F64801F044FD4FF445
:100D20000061F44801F041FD4FF48061F14801F0A9
:100D30003CFD10BD10B54FF48061EE4801F033FD6D
:100D40004FF40061EB4801F030FD4FF40061E948D9
:100D500001F029FD10BD10B54FF48061E54801F0A8
:100D600022FD4FF48061E34801F01FFD10BD2DE925
:100D7000F04105462C464FF48061DE4801F015FD38
:100D800000261CE0274607F08007802F04D1390198
:100D9000D84801F008FD04E04FF40061D54801F0A7
:100DA00004FD6006040E4FF48061D24801F0FBFCA4
:100DB0004FF48061CF4801F0F8FC701CC6B2082ED9
:100DC000E0DBBDE8F08110B50446FFF79DFF782019
:100DD000FFF7CDFFFFF7BFFF0020FFF7C8FFFFF7CA
:100DE000BAFF2046FFF7C3FFFFF7B5FFFFF7A2FFEB
:100DF00010BD10B50446FFF787FF7820FFF7B7FF57
:100E0000FFF7A9FF4020FFF7B2FFFFF7A4FF20463E
:100E1000FFF7ADFFFFF79FFFFFF78CFF10BD70B529
:100E200004460D461DB1E0B2FFF7E3FF02E0E0B279
:100E3000FFF7C9FF70BD70B50646002418E004F145
:100E4000B0000021FFF7EBFF00210846FFF7E7FFA6
:100E500000211020FFF7E3FF002505E001213046C7
:100E6000FFF7DDFF681CC5B2802DF7DB601CC4B244
:100E7000082CE4DB70BD06E041F6650100E0491E88
:100E80000029FCD1401E0028F6D17047014605E03C
:100E9000002001E0421CD0B27B28FBDB0A1EA1F13E
:100EA0000101F5D1704770B504460D4605F1B0005B
:100EB0000021FFF7B4FF102141EA14100021FFF7D1
:100EC000AEFF04F00F000021FFF7A9FF70BD10B5C1
:100ED00000218D20FFF7A3FF00211420FFF79FFFC3
:100EE0000021AF20FFF79BFF10BD10B500218D2022
:100EF000FFF795FF00211020FFF791FF0021AE20A2
:100F0000FFF78DFF10BD70B5002418E004F1B000AC
:100F10000021FFF784FF00210846FFF780FF002132
:100F20001020FFF77CFF002505E001210020FFF7DE
:100F300076FF681CC5B2802DF7DB601CC4B2082C9C
:100F4000E4DB70BD70B5002418E004F1B0000021AE
:100F5000FFF765FF00210846FFF761FF0021102021
:100F6000FFF75DFF002505E001210846FFF757FF69
:100F7000681CC5B2802DF7DB601CC4B2082CE4DB12
:100F800070BD2DE9F04707460E469046994600256C
:100F90000024A8F12000C5B27F2F02DD0027B01C7D
:100FA000C6B2B9F1100F24D131463846FFF77BFFA6
:100FB000002408E004EB05114F4A505C0121FFF7C3
:100FC0002EFF601CC4B2082CF4DB701CC1B2384682
:100FD000FFF769FF002409E004EB05110831464AD8
:100FE000505C0121FFF71BFF601CC4B2082CF3DB2F
:100FF00012E031463846FFF756FF00240AE005EBC1
:1010000045013E4A02EB4101085D0121FFF707FF60
:10101000601CC4B2062CF2DBBDE8F08710B50246B6
:10102000012000E050430B1EA1F10104E1B2F9D10F
:1010300010BD2DE9FF5F074691461E460E9D4FF0FD
:10104000000A002435E0301B401EC1B20A20FFF721
:10105000E5FFB9FBF0F00A21B0FBF1F201FB120849
:10106000BAF1000F14D1701EA04211DDB8F1000FCB
:101070000CD1AB4605EBDB71491001FB0471C8B222
:101080002B4620220199FFF77CFF10E04FF0010A68
:10109000AB4605EBDB71491001FB0471C8B208F1E6
:1010A0003001CAB22B460199FFF76BFF00BF601CED
:1010B000C4B2B442C7DBBDE8FF9F2DE9F04104464E
:1010C0000F461546984600260FE0AA5D434639466E
:1010D0002046FFF756FF04F10800C4B2782C02DD69
:1010E0000024B81CC7B2701CC6B2A85D0028ECD1A1
:1010F000BDE8F081000C0140AE42000886400008C7
:101100002DE9F04180460E461546002731464046FF
:10111000FFF7C9FE00240AE0744A02EB4511085D9E
:101120000121FFF77CFE781CC7B2601CC4B2102CF2
:10113000F2DB701CC1B24046FFF7B5FE00240CE0A4
:101140006900491C694A02EB0111085D0121FFF7A2
:1011500066FE781CC7B2601CC4B2102CF0DBBDE880
:10116000F0812DE9F05F06460F4690461C46DDF8FB
:1011700028A04FF0000BE11704EB5171C910A4EB4C
:10118000C10131B92046E11704EB5171C1F3C70524
:1011900006E02046E11704EB5171C910491CCDB29D
:1011A0003D4615E029463046FFF77DFEB1460BE08F
:1011B00059460BF1010B1AF801000121FFF72FFE30
:1011C00009F1010000F0FF09C145F1DB681CC5B25F
:1011D000A542E7DBBDE8F09F08B50121082001F03A
:1011E000F1FC4FF44060ADF8000010208DF80300D2
:1011F00003208DF8020069463D4801F027FA4FF4BC
:1012000040613B4801F0CFFA4FF4C87001F003F998
:101210000021AE20FFF703FE00210846FFF7FFFD87
:1012200000211020FFF7FBFD00214020FFF7F7FD14
:101230000021B020FFF7F3FD00218120FFF7EFFD33
:101240000021FF20FFF7EBFD0021A120FFF7E7FDC4
:101250000021A620FFF7E3FD0021A820FFF7DFFD16
:1012600000213F20FFF7DBFD0021C820FFF7D7FD5D
:101270000021D320FFF7D3FD00210846FFF7CFFD63
:101280000021D520FFF7CBFD00218020FFF7C7FD0F
:101290000021D820FFF7C3FD00210520FFF7BFFD87
:1012A0000021D920FFF7BBFD0021F120FFF7B7FD9A
:1012B0000021DA20FFF7B3FD00211220FFF7AFFD78
:1012C0000021DB20FFF7ABFD00213020FFF7A7FD59
:1012D00000218D20FFF7A3FD00211420FFF79FFDC3
:1012E0000021AF20FFF79BFD08BD00003800002063
:1012F000000C01400EB5FFF721FA0121084601F06C
:1013000061FC0321002001F0B7FA082001900020C1
:101310008DF808000C208DF8090001A801F0C8FE26
:101320000421002001F0A8FA102001900C208DF873
:10133000090001A801F0BCFE0021084601F09CFA5A
:10134000012001900C208DF8090001A801F0B0FEE9
:101350000221002001F090FA042001900C208DF869
:10136000090001A801F0A4FE0E21022001F084FA78
:101370004FF4804001900C208DF8090001A801F085
:1013800097FE09208DF8000002208DF80100002052
:101390008DF8020001208DF80300684601F08DF8F9
:1013A0000A208DF8000002208DF8010001208DF840
:1013B00002008DF80300684601F07FF806208DF8E2
:1013C000000002208DF801008DF8020001208DF848
:1013D0000300684601F071F808208DF80000022033
:1013E0008DF8010003208DF8020001208DF8030024
:1013F000684601F062F828208DF8000002208DF880
:10140000010004208DF8020001208DF803006846D9
:1014100001F053F80EBD2DE9F0410A2000F0FBFF6A
:101420000821414801F0A5F998B9404940480068B1
:1014300002F082FC0DD23E48006802F0A7FB06468F
:1014400000223C4B01F024FF044601F0EFFE384936
:101450000860082001F0A3FEBDE8F0812DE9F0410D
:101460000A2000F0D8FF10212F4801F082F998B926
:1014700031492F48006802F05FFD0DD22C4800680A
:1014800002F084FB064600222A4B02F095FA04463D
:1014900001F0CCFE26490860102001F080FEBDE876
:1014A000F08110B50A2000F0B6FF01211E4801F0BE
:1014B00060F918B93121214801F024FD012001F023
:1014C0006EFE10BD10B50A2000F0A5FF04211648DD
:1014D00001F04FF918B94221184801F013FD04201A
:1014E00001F05DFE10BD10B50A2000F094FF4FF42E
:1014F0008041134801F03DF980B91249086800EBBA
:10150000D0714910A0EB410119B932210B4801F00B
:10151000F9FC0C480068401C0A4908604FF4804000
:1015200001F03DFE10BD00000008014000003842FF
:10153000380700200000E03F0000F0410038014083
:10154000001001403C07002010B586B00446012180
:1015500044F2040001F036FB4FF40070ADF81400C3
:1015600003208DF8160018208DF8170005A93048C3
:1015700001F06CF804208DF817000002ADF814009B
:1015800005A92B4801F062F825208DF810000120F4
:101590008DF812008DF8130000208DF8110004A8BA
:1015A00000F08BFF00940020ADF80400ADF80600B9
:1015B000ADF80800ADF80C000C20ADF80A00694643
:1015C0001C4801F0A6FB01211A4801F02EFC012263
:1015D00040F22551174801F034FC06B010BD70B53B
:1015E00004460D464021134801F007FDE1B21148C1
:1015F00001F088FC00BF40210E4801F0F1FC0028FA
:10160000F9D0204670BD10B504460BE014F8011B5C
:10161000084801F077FC00BF8021064801F0E0FC9B
:101620000028F9D020780028F0D110BD70470000C4
:10163000000801400038014008B50121082001F0F0
:10164000C1FA4FF48070ADF8000010208DF803004F
:1016500003208DF802006946044800F0F7FF4FF4BC
:101660008071024801F09FF808BD0000000C0140A5
:1016700008B50121042001F0A5FA4FF4C050ADF8DF
:10168000000010208DF8030003208DF80200694649
:10169000EB4800F0DBFF0020EA490860EA49C1F8A6
:1016A000B00108BD10B5E648001D006820F47020A8
:1016B000E349091D08600846006840F440300860AE
:1016C0000120E049091D0860DF49C1F8AC0105208F
:1016D00000F07DFE0020DB49091D0860052000F0B8
:1016E00076FE0020D849C1F8AC0110BD10B5D44831
:1016F000001D006820F47020D149091D08600846CB
:10170000006840F4403008600020CE490860CE49AF
:10171000C1F8B001052000F05AFE0120C949086057
:10172000C949C1F8B001052000F051FE10BD70B5E7
:1017300000250024C248001D006820F47020C04924
:10174000091D08600846006840F400200860012078
:10175000BC49091D0860052000F039FE0120BA4986
:10176000C1F8AC01052000F032FE09E0052000F0D0
:101770002EFEB4487C38006800B903E0601CC4B297
:10178000C82CF3DB00BFC82C03DBFFF7AFFF00253D
:1017900000E001250020AB490860284670BD10B567
:1017A0000020A8490860A648001D006820F47020A9
:1017B000A349091D08600846006840F440300860ED
:1017C0000020A149C1F8B001052000F000FE012071
:1017D0009C490860052000F0FAFD00209A49C1F8F4
:1017E000AC0110BD10B50020964908609448001D5A
:1017F000006820F470209249091D086008460068BE
:1018000040F44030086001208F49C1F8B001052044
:1018100000F0DDFD01208B490860052000F0D7FDB8
:1018200000208949C1F8AC0110BD70B504460025FF
:1018300000268348001D006820F470208049091D9F
:1018400008600846006840F44030086000207D4988
:10185000086014E0E0097B49091D08606006040E79
:1018600001207949C1F8AC01052000F0B0FD00204D
:1018700074490860052000F0AAFD681CC5B2082D57
:10188000E8DBFFF754FF0646304670BD70B5002513
:1018900000246B48001D006820F470206849091D71
:1018A00008600846006840F40020086016E0002048
:1018B00064490860052000F08AFD01206249C1F8F2
:1018C000AC016006040E5F487C38006808B1601CFB
:1018D000C4B2052000F07BFD681CC5B2082DE6DB14
:1018E000FFF780FF204670BDF0B504460D4600208E
:1018F00080EA4406F0B200210BE000F0800626B139
:10190000072686EA4006F0B201E04606300E4E1C7D
:10191000F1B20829F1DB684000210BE000F08006FD
:1019200026B1072686EA4006F0B201E04606300EF0
:101930004E1CF1B20829F1DB12E012F8016B704085
:1019400000210BE000F0800626B1072686EA40065B
:10195000F0B201E04606300E4E1CF1B20829F1DB70
:101960001E1EA3F10107BBB2E7D1F0BD2DE9F04780
:1019700005460E461746984643463A46314628469F
:10198000FFF7B2FF8146FFF78DFE002141EA4501D6
:10199000C8B2FFF74AFF10B90020BDE8F087304613
:1019A000FFF743FF08B90020F7E7002407E0385DA0
:1019B000FFF73BFF08B90020EFE7601CC4B24445C5
:1019C000F5DB4846FFF731FF08B90020E5E7FFF7F0
:1019D0008DFE0120E1E72DE9F04104460F46154652
:1019E0009846FFF75FFE002141EA4401C8B2FFF7C5
:1019F0001CFF10B90020BDE8F0813846FFF715FF45
:101A000008B90020F7E7FFF74DFE012101EB440183
:101A1000C8B2FFF70AFF08B90020ECE708F0FF069C
:101A200005E0FFF733FF28706D1C701EC6B2002E54
:101A3000F7DCFFF72BFFFFF759FE0120DBE7000083
:101A400000080140AC01214200002142F8B5F848ED
:101A5000FEF766FFF648FEF794FFF548FFF723F818
:101A60000446F349486802F091F805460022F14B1C
:101A700001F06CFF00D2F04C122200210846FFF763
:101A80003FFB132200211020FFF73AFB1023EBA2AB
:101A900000212020FFF711FBE549486802F010F90A
:101AA000642190FBF1F201FB1205102002232A466B
:101AB000002100902820FFF7BCFADD494868E14981
:101AC00002F06EF9064602F0FBF8642190FBF1F299
:101AD00001FB1205102002232A460021009040201D
:101AE000FFF7A7FA062202210020FFF709FB0022D8
:101AF00002211020FFF704FB1023D0A20221202096
:101B0000FFF7DBFA204602F0DBF8642190FBF1F2EC
:101B100001FB1205102002232A46194600902820B6
:101B2000FFF787FAC749204602F03AF9064602F065
:101B3000C7F8642190FBF1F201FB1205102002238B
:101B40002A46194600904020FFF773FA1422042118
:101B50000020FFF7D5FA152204211020FFF7D0FA54
:101B6000162204212020FFF7CBFA1722042130206F
:101B7000FFF7C6FA1023B4A204214020FFF79DFA14
:101B8000B348006802F09CF8642190FBF1F201FB7D
:101B90001205102002232A46042100904820FFF756
:101BA00048FAAC49AA48006802F0FAF8064602F082
:101BB00087F80A2190FBF1F201FB120510200123A6
:101BC0002A46042100906020FFF733FAA0480168FC
:101BD000204602F0B1F913D200209F4908609F49C6
:101BE000C1F8A0011A220621FFF78AFA182206215D
:101BF0001020FFF785FA192206212020FFF780FA2E
:101C000093480168204602F097F815D801209249C0
:101C100008609249C1F8A001182206210020FFF7B0
:101C20006FFA192206211020FFF76AFA10238CA2FE
:101C300006212020FFF741FAF8BDF8B57C48FEF7F1
:101C40006FFE7B48FEF79DFE7948FEF72CFF0646A7
:101C50007749486801F09AFF04460022754B01F06D
:101C600075FE00D2744E122200210846FFF748FA92
:101C7000132200211020FFF743FA10236FA2002146
:101C80002020FFF71AFA6A49486802F019F864211F
:101C900090FBF1F201FB12041020022322460021E6
:101CA00000902820FFF7C5F961494868654902F0AE
:101CB00077F8054602F004F8642190FBF1F201FB8D
:101CC0001204102002232246002100904020FFF73A
:101CD000B0F9072202210020FFF712FA00220221A8
:101CE0001020FFF70DFA102354A202212020FFF745
:101CF000E4F94F49886801F0E3FF642190FBF1F2B9
:101D000001FB1204102002232246194600902820CD
:101D1000FFF78FF9464988684A4902F041F80546BD
:101D200001F0CEFF642190FBF1F201FB12041020C0
:101D300002232246194600904020FFF77AF9142228
:101D400004210020FFF7DCF9152204211020FFF701
:101D5000D7F9162204212020FFF7D2F917220421F7
:101D60003020FFF7CDF9102337A204214020FFF7E0
:101D7000A4F93748006801F0A3FF642190FBF1F259
:101D800001FB120410200223224604210090482067
:101D9000FFF74FF92F492E48006802F001F8054679
:101DA00001F08EFF0A2190FBF1F201FB12041020DA
:101DB00001232246042100906020FFF73AF91C49D4
:101DC00088682349096802F0B7F813D20020224935
:101DD00008602249C1F8A0011A220621FFF790F9F4
:101DE000182206211020FFF78BF919220621202046
:101DF000FFF786F90E4988681549096801F09CFFCC
:101E000015D80120144908601449C1F8A00118220E
:101E100006210020FFF774F9192206211020FFF790
:101E20006FF910230EA206212020FFF746F9F8BD16
:101E30007807002000C04240000016423A20202EC1
:101E4000202043000000C8423A20202E20430000FA
:101E50003807002000002041B401224200802142C6
:101E60002020000010B50C2200212020FFF748F9A7
:101E70000D2200213020FFF743F90E2200214020DF
:101E8000FFF73EF90F2200215020FFF739F90E220B
:101E900002210020FFF734F90F2202211020FFF762
:101EA0002FF9222202212020FFF72AF923220221E2
:101EB0003020FFF725F91023FEA202214020FFF772
:101EC000FCF81E2204210020FFF71AF91F2204212A
:101ED0001020FFF715F91023F6A204212020FFF7A8
:101EE000ECF8202206210020FFF70AF92122062122
:101EF0001020FFF705F91023EEA206212020FFF79E
:101F0000DCF810BD10B5EC480078012870D1EB4822
:101F10000478A4F130000A281ED2DFE800F005C4DE
:101F2000C41E3750C46A88A60220E54908702E22D4
:101F300004212820FFF7E4F82F2204213820FFF79E
:101F4000DFF80C2204214820FFF7DAF81023DDA285
:101F500004215820FFF7B1F8A5E00120D849087006
:101F6000252204212820FFF7CBF82622042138203F
:101F7000FFF7C6F8272204214820FFF7C1F81023F5
:101F8000D0A204215820FFF798F88CE00120CC491A
:101F90000870282204211046FFF7B2F829220421F4
:101FA0003820FFF7ADF82A2204214820FFF7A8F8CF
:101FB0001023C4A204215820FFF77FF873E001200A
:101FC000BF4908702B2204212820FFF799F82C2202
:101FD00004213820FFF794F82D2204214820FFF730
:101FE0008FF81023B7A204215820FFF766F85AE0B3
:101FF000B0E00120B2490870102204212820FFF728
:102000007FF8112204213820FFF77AF822220421D8
:102010004820FFF775F8232204215820FFF770F8B5
:102020001023AAA204216820FFF747F83BE0012013
:10203000A3490870102204212820FFF761F811221B
:1020400004213820FFF75CF8222204214820FFF702
:1020500057F8232204215820FFF752F810239DA29D
:1020600004216820FFF729F81DE001209449087039
:10207000102204212820FFF743F8112204213820E0
:10208000FFF73EF8222204214820FFF739F82322E7
:1020900004215820FFF734F8102390A2042168206F
:1020A000FFF70BF800BF00BF85480078012825D155
:1020B0008C4908608C49C1F8B4011C2202214820D7
:1020C000FFF71EF81D2202215820FFF719F81023F0
:1020D00086A202216820FEF7F0FF18220621302098
:1020E000FFF70EF8192206214020FFF709F8102308
:1020F00075A206215020FEF7E0FF27E07048007827
:10210000022823D10020774908607749C1F8B4013B
:102110001A2202214820FEF7F3FF1C220221582038
:10212000FEF7EEFF1D2202216820FEF7E9FF1A22CA
:1021300006213020FEF7E4FF182206214020FEF79A
:10214000DFFF192206215020FEF7DAFF00205A494E
:10215000087000BF10BD10B50C2200212020FEF732
:10216000CFFF0D2200213020FEF7CAFF10220021F0
:102170004020FEF7C5FF112200215020FEF7C0FFCE
:10218000102204210020FEF7BBFF112204211020A1
:10219000FEF7B6FF222204212020FEF7B1FF232202
:1021A00004213020FEF7ACFF102342A2042140207E
:1021B000FEF783FF10BD10B53F480078012828D1F5
:1021C0003E480478362C0FD11C2204214820FEF70B
:1021D00097FF1D2204215820FEF792FF102343A2EF
:1021E00004216820FEF769FF412C0ED1352204211D
:1021F0004820FEF785FF362204215820FEF780FF95
:10220000372204216820FEF77BFF00202A4908704E
:1022100000BF10BD10B5082200212020FEF770FF7E
:10222000092200213020FEF76BFF0A220021402006
:10223000FEF766FF0B2200215020FEF761FF0A2205
:1022400002210020FEF75CFF0B2202211020FEF786
:1022500057FF222202212020FEF752FF23220221D3
:102260003020FEF74DFF102312A202214020FEF77E
:1022700024FF10BD10B51048007801287ED10F480A
:102280000478312C4DD11C2202214820FEF738FF62
:102290001D2202215820FEF733FF102313A2022132
:1022A0006820FEF70AFF302204210020FEF728FFF5
:1022B00031221DE03A0000000000002058070020F5
:1022C000020000202020202020200000312020209B
:1022D00000000000322020200000000033202020D9
:1022E00000000000A08121420000224220202000A6
:1022F00004211020FEF704FF322204212020FEF7E3
:10230000FFFE332204213020FEF7FAFE342204219E
:102310004020FEF7F5FE10231DA204215020FEF7F9
:10232000CCFE322C2ED11A2202214820FEF7E8FEE4
:102330001C2202215820FEF7E3FE1D220221682004
:10234000FEF7DEFE302204210020FEF7D9FE312206
:1023500004211020FEF7D4FE1A2204212020FEF7CB
:10236000CFFE322204213020FEF7CAFE33220421A0
:102370004020FEF7C5FE3422042100E006E0502094
:10238000FEF7BEFE00200449087000BF10BD00002B
:1023900020202020200000000000002010B56FF059
:1023A000040000F0D4F82E4800682E49B0FBF1F08C
:1023B0002D4908700846007800EB4001C1EBC010C1
:1023C0004FF6FF7101EAC0002849088010BD0146A0
:1023D000254A12784A434FF0E0235A6100229A615D
:1023E0001A46126942F001021A6100BF4FF0E02262
:1023F000106900F001021AB100F48032002AF5D011
:102400004FF0E022126922F001024FF0E0231A613E
:1024100000229A6170470146144A12884A434FF0DD
:10242000E0235A6100229A611A46126942F00102C1
:102430001A6100BF4FF0E022106900F001021AB1EA
:1024400000F48032002AF5D04FF0E022126922F029
:1024500001024FF0E0231A6100229A6170470000E8
:102460001000002000127A004007002042070020E0
:102470000948804709480047FEE7FEE7FEE7FEE718
:10248000FEE7FEE7FEE7FEE7FEE7FEE70448054954
:10249000054A064B70470000DF05000831010008BF
:1024A000F0070020F00D0020F0090020F0090020C6
:1024B00031490143314A1160704770B50021002352
:1024C0000F22C47804B32D4C246804F4E064C4F5EE
:1024D000E064210AC1F10403CA40447804FA03F11C
:1024E0008478144021430901254C0678A1550478CD
:1024F00004F01F050124AC4005786D11AD0005F115
:10250000E025C5F8004109E0047804F01F05012426
:10251000AC401C4D0678761145F8264070BD1A4A2D
:102520000A400243154B1B1F1A60704739B1134A0A
:10253000121D12680243114B1B1D1A6006E00F4A60
:10254000121D126882430D4B1B1D1A607047042830
:1025500008D14FF0E021096941F004014FF0E02279
:10256000116107E04FF0E021096921F004014FF00B
:10257000E0221161704700000000FA050CED00E058
:1025800000E400E080E100E080FFFF1F10B504469A
:10259000CC48844208D10121042000F02DFB002109
:1025A000042000F029FB46E0C748844208D10121FD
:1025B000082000F021FB0021082000F01DFB3AE07C
:1025C000C248844208D10121102000F015FB0021EF
:1025D000102000F011FB2EE0BD48844208D10121FB
:1025E000202000F009FB0021202000F005FB22E064
:1025F000B848844208D10121402000F0FDFA0021B2
:10260000402000F0F9FA16E0B348844208D10121D5
:10261000802000F0F1FA0021802000F0EDFA0AE0BD
:10262000AE48844207D10121801500F0E5FA00216F
:10263000A01500F0E1FA10BD10B50121084600F028
:10264000DBFA0021012000F0D7FA10BD2DE9F0419E
:10265000024600250026002000230024002791F8D0
:1026600003C00CF00F0591F803C00CF0100CBCF186
:10267000000F03D091F802C04CEA050591F800C0A4
:10268000BCF1000F31D0146800202BE04FF0010C9A
:102690000CFA00F3B1F800C00CEA03069E4220D108
:1026A00083004FF00F0C0CFA03F7BC4305FA03FC50
:1026B0004CEA040491F803C0BCF1280F06D14FF096
:1026C000010C0CFA00FCC2F814C00AE091F803C037
:1026D000BCF1480F05D14FF0010C0CFA00FCC2F818
:1026E00010C0401C0828D1D31460B1F800C0BCF160
:1026F000FF0F34DD546800202EE000F1080C4FF08D
:10270000010808FA0CF3B1F800C00CEA03069E4277
:1027100021D183004FF00F0C0CFA03F7BC4305FAEC
:1027200003FC4CEA040491F803C0BCF1280F05D166
:1027300000F1080C08FA0CF8C2F8148091F803C0F4
:10274000BCF1480F07D100F1080C4FF0010808FA5E
:102750000CF8C2F81080401C0828CED35460BDE8A5
:10276000F0814FF6FF710180022181700421C17058
:1027700070470246002093680B400BB1012000E037
:10278000002070470146886880B2704702460020EA
:10279000D3680B400BB1012000E0002070470146D8
:1027A000C86880B2704701617047416170470AB1E3
:1027B000016100E041617047C16070474FF48032B1
:1027C0000A4382618161826182698269704702463F
:1027D0000020434B18684FF68073184040EA0210FF
:1027E00008433F4B186070473E49C8617047F0B5D9
:1027F0000A46002300240021002500F00046B6F11F
:10280000004F02D1364EF16901E0354E7168C0F3D8
:10281000034583B200F44016B6F5401F08D121F0FD
:1028200070612F4E766826F070662D4F7E6012E044
:1028300000F48016B6F5801F06D1032606FA05F4CB
:10284000A14341F0706106E0460D360103FA06F639
:10285000B14341F0706122B1460D360103FA06F62C
:10286000314300F00046B6F1004F02D11C4EF16139
:1028700001E01B4E7160F0BD30B500228B071C0FCC
:102880000F2303FA04F2164B08338C1053F824304C
:102890009343134C08348D1044F8253023468C1094
:1028A00053F824308C07240F00FA04F423430C4C13
:1028B00008348D1044F8253030BD0A49DC310860F9
:1028C0007047000000080140000C0140001001406A
:1028D0000014014000180140001C0140002001408C
:1028E0000000014000002042DF48006840F0010085
:1028F000DD49086008464068DC490840DA4948601C
:1029000008460068DA490840D74908600846006868
:1029100020F4802008600846406820F4FE004860EB
:102920004FF41F0088607047CF49096821F4803157
:10293000CD4A11601146096821F480211160B0F57B
:10294000803F03D0B0F5802F0ED106E0C64909685C
:1029500041F48031C44A116007E0C349096841F479
:10296000A021C14A116000E000BF00BF704710B550
:1029700001460022002300204A11012A02D1BA4C4C
:10298000236806E0022A02D1B74C236A01E0B64C64
:10299000636A01F01F02012494401C400CB1012025
:1029A00000E0002010BD38B5002000900024002574
:1029B00000BF3120FFF7DBFF05460098401C009068
:1029C0000098B0F5A06F01D0002DF2D03120FFF7B4
:1029D000CEFF08B1012400E00024204638BD0146A6
:1029E0000020A14A106820F0F80040EAC100106001
:1029F0007047A04908607047024600209A4B58680B
:102A000020F47C1042EA01031843974B586070474A
:102A100098490866704701460020934A506820F0A4
:102A200003000843506070478F48406800F00C0076
:102A30007047014600208C4A506820F0F00008439F
:102A40005060704701460020874A506820F4E060DB
:102A500008435060704701460020834A506820F4C4
:102A6000605040EAC1005060704729B17E4A527AF6
:102A700002437D4B5A7204E07B4A527A82437A4B7E
:102A80005A7270477B49D831086070470146002070
:102A9000754A506820F44040084350607047002158
:102AA000714A20321170704A82F82010012802D039
:102AB00004280AD104E001216B4A2032117005E09C
:102AC0000521694A2032117000E000BF00BF704745
:102AD0006949086070476449096A0143624A1162A2
:102AE0007047654944390860704730B500210022BD
:102AF000002400235C4D6D6805F00C0121B1042910
:102B000005D0082923D105E05C4D056022E05B4D2E
:102B100005601FE0544D6D6805F47012524D6D68EC
:102B200005F48034022505EB92421CB9544D5543FF
:102B300005600BE04C4D6D6805F400351DB1504D3E
:102B40005543056002E04D4D5543056002E04B4D95
:102B5000056000BF00BF444D6D6805F0F001090934
:102B6000484D6B5C0568DD4045603F4D6D6805F480
:102B7000E061090A434D6B5C4568DD4085603A4D74
:102B80006D6805F46051C90A3E4D6B5C4568DD40D7
:102B9000C560354D6D6805F44041890B3A4D6B5C5D
:102BA000C568B5FBF3F5056130BD29B12E4A526900
:102BB00002432D4B5A6104E02B4A526982432A4B4F
:102BC0005A61704729B1284A92690243264B9A619B
:102BD00004E0254A92698243234B9A61704729B1E8
:102BE000214AD2690243204BDA6104E01E4AD269CD
:102BF00082431D4BDA61704729B11B4AD2680243F8
:102C0000194BDA6004E0184AD2688243164BDA6046
:102C1000704729B1144A12690243134B1A6104E048
:102C2000114A12698243104B1A61704712494039A8
:102C3000086070470F49C86470470B49C8717047F6
:102C40000948406A40F08070074948627047014671
:102C50000020054A92680A400AB1012000E00020E5
:102C60007047014988727047001002400000FFF869
:102C7000FFFFF6FE000042428004424200127A004A
:102C800000093D00440700205407002010B5044609
:102C9000FB48844209D101218803FFF7ADFF0021E1
:102CA0004FF48040FFF7A8FF32E0F648844209D194
:102CB00001214804FFF7ADFF00214FF40030FFF77A
:102CC000A8FF25E0F048844209D101218804FFF7DC
:102CD000A0FF00214FF48020FFF79BFF18E0EB4896
:102CE000844209D10121C804FFF793FF00214FF46A
:102CF0000020FFF78EFF0BE0E548844208D1012158
:102D00000805FFF786FF00214FF48010FFF781FFD1
:102D100010BD2DE9F04786B005460E460024A246B8
:102D200000BFA1460027B08900B100BF2F462C8A02
:102D30004CF6FF700440F08804432C82AC894EF6B8
:102D4000F3100440B0883189084371890843044373
:102D5000AC81AC8A4FF6FF400440B0890443AC829A
:102D600001A8FFF7C2FEC648874202D1DDF810A0D5
:102D700001E0DDF80CA0A88900F4004040B10AEBA6
:102D8000CA0000EB0A1031684900B0FBF1F807E017
:102D90000AEBCA0000EB0A1031688900B0FBF1F8B9
:102DA0006420B8FBF0F004012009642101FB1089C4
:102DB000A88900F4004040B1322000EBC900B0FB0C
:102DC000F1F000F00700044308E0322000EB0910A6
:102DD0006421B0FBF1F000F00F0004432C8106B039
:102DE000BDE8F0874FF41651016000218180C18059
:102DF00001810C21418100218181704710B502467B
:102E00000020108A4FF2FF0318400B884C882343A0
:102E10008C882343CC8823431843108210BD0021A3
:102E2000018041808180C180704721B1828942F454
:102E30000052828104E082894DF6FF731A4082813C
:102E40007047F0B50346002400260025002040F618
:102E50006A17B94200D100BF1846C1F3421401F00D
:102E60001F06012707FA06F5012C01D10C3004E0FA
:102E7000022C01D1103000E014301AB107682F4342
:102E8000076002E00768AF430760F0BD1AB1838AAC
:102E90000B43838202E0838A8B4383827047028ADA
:102EA0004FF6F0731A400282028A0A430282704788
:102EB00082894FF2FF731A40828182890A4382819C
:102EC000704721B1828942F00202828104E0828946
:102ED0004FF6FD731A4082817047028A4FF6DF7306
:102EE0001A400282028A0A430282704721B1028A92
:102EF00042F48042028204E0028A4BF6FF731A40D9
:102F000002827047C1F308028280704701468888B8
:102F1000C0F308007047818941F001018181704749
:102F2000028BD2B20283028B42EA012202837047F3
:102F3000028B02F47F420283028B0A4302837047B2
:102F400021B1828A42F02002828204E0828A4FF616
:102F5000DF731A408282704721B1828A42F01002E8
:102F6000828204E0828A4FF6EF731A4082827047B1
:102F700021B1828A42F00802828204E0828A4FF6FE
:102F8000F7731A408282704721B1828942F400426D
:102F9000828103E08289C2F30E028281704721B1EF
:102FA000828A42F40062828204E0828A4FF2FF73D6
:102FB0001A4082827047828A4FF6FB731A408282DF
:102FC000828A0A438282704721B1828A42F00202D9
:102FD000828204E0828A4FF6FD731A408282704733
:102FE00002460020B1F5007F00D100BF13880B40DE
:102FF0000BB1012000E00020704701F40072B2F52F
:10300000007F00D100BFCA430280704770B50246FE
:10301000002400230025002040F66A16B14200D1AA
:1030200000BFC1F3421501F01F03012606FA03F3A6
:10303000012D02D19689334006E0022D02D1168A75
:10304000334001E0968A33400C12012606FA04F45C
:103050001688344013B10CB1012000E0002070BD8F
:1030600010B50022002340F66A14A14200D100BF2F
:103070000A1201249440A3B2DC43048010BD000076
:10308000003801400044004000480040004C00402F
:1030900000500040002044490860091D0860091DD7
:1030A0000860091D086041483F49143108607047B5
:1030B00000213D498279002A3AD00A461268036805
:1030C0009A430B461A600A1D126803689A430B1D47
:1030D0001A60027911440A6803681A430A60324A86
:1030E0000832126803689A432F4B08331A601A1D7E
:1030F000126803689A432C4B0C331A604279102AE9
:103100000ED11A1F126803681A43274B08331A603E
:103110001A1D126803681A43234B0C331A600DE022
:103120002149427911440A6803681A430A6005E09C
:10313000027911440A6803689A430A6070470021C3
:10314000016001710C2141710021817170471649A4
:10315000103109680143144A10321160704701466A
:103160000020114A143212680A400AB1012000E01E
:10317000002070470C491431086070470146002058
:103180000022094B1B6803EA0102074B14331B683A
:103190000B4013B10AB1012000E000207047024942
:1031A000143108607047000000040140FFFF0F0069
:1031B000704770477047754600F02CF8AE46050022
:1031C0006946534620F00700854618B020B5FFF742
:1031D0005DF9BDE820404FF000064FF000074FF0CA
:1031E00000084FF0000B21F00701AC46ACE8C00925
:1031F000ACE8C009ACE8C009ACE8C0098D4670472E
:1032000010B50446AFF300802046BDE81040FCF73F
:10321000FABF0000004870478C07002001491820C1
:10322000ABBEFEE7260002007047000021F000421E
:10323000A2F16052B2F5801F01F0004328BFD2F125
:103240007F6C0BD95FEA001C43EAC20242EB50706C
:1032500018BF704728BF20F001007047B2F5801FEB
:10326000BCBF184670474FEA410C1CF5001F02D244
:10327000084600F05CBE70B500F014FB0000008949
:10328000FFF7F6BF4FF00040A0F580007047000048
:1032900010B591EA030F48BF83F0004300F1948317
:1032A000841A71EB030C05D2121943EB0C03001BBB
:1032B00061EB0C01DFF824E14FEA1154A4EB135C3D
:1032C0001EEA430F18BF9EEA445F73D023EA0E0341
:1032D000DCF1200E21EA045143F4801332D322FAA8
:1032E0000CFE10EB0E0023FA0CFE41EB0E01CCF1AC
:1032F000200E03FA0EFE10EB0E0051F10001B1F5A5
:10330000801FCCF1200E32D201EB045112FA0EF2E2
:10331000BDE8104058BF7047401C38BF5FEA42020A
:1033200018BF7047002814BF20F0010041F10001D0
:103330004FEA410313F5001F38BF7047A1F1C041A8
:1033400000F0FEBA012A43EB0302ACF1200CDCF1E1
:103350001F0E32BF4FF0000E23FA0CF310EB0300E8
:1033600041EB0451B4EB115FD0D0A1EB045101F556
:10337000801149085FEA300001EB04510ED350F18F
:10338000000038BF12FA0EFE08D1BDE81040C9E7B0
:10339000401C38BF5FEA4202CAD1C3E7BDE8104013
:1033A0004FEA410313F5001F38BF7047A1F1C04138
:1033B00000F0C6BA9EEA445F08D011EA5E0FBDE88D
:1033C000104004BF01F0004100207047BDE81040EC
:1033D00070B500F067FA00BF64FBBE3E0000E0FF7E
:1033E000491058BFC1F140415B1058BFC3F1404381
:1033F0008B42EFF3008070472DE9C04130B4DFF815
:10340000A0C23CEA111418BF3CEA131400F0EC808F
:1034100081EA03051CEA111444EAD57418BF1CEABA
:10342000131500F0C780A4EB05044FF0004545EAF2
:10343000C12145EAC32341EA505143EA525304F102
:103440007F74994204F500344FEAC0204FEAC2224B
:1034500008BF904200F09C804FEA13650FF24016BF
:10346000765D4FEA134506FB05F7C7F1807706FB4B
:1034700007F74FEAD737A7FB03687642C8F58038CD
:10348000A7FB06CE38BFA8F1010807FB08E64FF0FE
:10349000000EA6FB028CE6FB03CEDCF1000CCEF1A5
:1034A000004E38BFAEF1010EA6FB0C584FF00007DE
:1034B0004FF00005E6FB0E87A1FB08C6A0FB07CE78
:1034C00016EB0E0645F10005E1FB076515F1E04E30
:1034D0007EBFA4F580345FEA46066D4116F1800791
:1034E00045F100054FEA17274FEA066647EA0567E8
:1034F000A6F1DE46B6F1805F4FEA15251FD93846A2
:1035000024F0010C05EBC471BCF1FE6F01EB0C1152
:1035100002D8F0BCBDE8008124425CBF01F5801EEA
:103520009EEAC47F02D4F0BCBDE80081244238D4B6
:10353000F0BCA1F1C041BDE8004100F001BA4FEA82
:10354000D22242EA43524FEAD323A7FB02864FEA34
:10355000D02040EA415007FB03661EEA0E0F4FEAF7
:10356000D12105FB026658BFA6EB0056B6EB00560C
:103570004FEA520E4EEAC37E18EB0E0E56EB530E78
:10358000BDD518EB02085E417F1C55F10005B6E77A
:103590004FF480154FF000074FF000064FF0000881
:1035A000ADE7F0BC4FF0000001F1C04101F0004177
:1035B000BDE8008111EA0C1F0CEA131500D00CE0E5
:1035C00013EA0C1F00F025804FF00000F0BC81EAE8
:1035D000030101F00041BDE80081F0BCBDE80041FD
:1035E00081EA030100F0ACB9F0BCBDE8004170B560
:1035F00000F058F9097EFC3E00F007B881EA0301AB
:103600004FF0000001F00041704781EA030100F033
:1036100097B9F0BCBDE800414FF000002149704768
:10362000FFFDFBF9F7F5F4F2F0EEEDEBE9E8E6E487
:10363000E3E1E0DEDDDBDAD8D7D5D4D3D1D0CFCD0E
:10364000CCCBCAC8C7C6C5C4C2C1C0BFBEBDBCBB47
:10365000BAB9B8B7B6B5B4B3B2B1B0AFAEADACAB42
:10366000AAA9A8A8A7A6A5A4A3A3A2A1A09F9F9E1C
:103670009D9C9C9B9A9999989797969595949393CE
:10368000929191908F8F8E8E8D8C8C8B8B8A898965
:1036900088888787868585848483838282818180E8
:1036A0000000FF070000F87F10F0004248BF4042D2
:1036B000B0FA80F310FA03F10AD0C3F11D0303F549
:1036C00080634FEA415002EB035202EBD121704775
:1036D0004FF000007047000051EA030C17D41CF5AE
:1036E000801F58BFBCF5801F00F10680994218BFAB
:1036F000704708BF9042704707D711F5801F58BF29
:1037000013F5801F19D499427047894270471CF500
:10371000801F08D5BCF5801FF7D58B4218BF7047B6
:1037200008BF824270474FF4001C1CEB410F38BFAA
:103730001CEB430F01D28B42704770B500F0B2F81A
:10374000922449004FF000514FF08053FFF748BEDC
:10375000DFF848C170B51CEA111E1EBF1CEA131524
:103760009EEA0C0F95EA0C0F00F06F8081EA0304CB
:1037700023EA4C134EEAD47E21EA4C1141F4801125
:1037800043F48013AE44A1FB024CA0FB0365AEF1F1
:103790007F7E361955EB0C05A1FB034C4CF1000361
:1037A000A0FB021C16EB0C06654153F10003094215
:1037B00018BF46F0010613F4007F0BD14FEA033126
:1037C0004FEA0530340341EA155140EA16506FF0D4
:1037D00003020AE04FEAC3214FEAC520F40241EA9E
:1037E000555140EA56506FF0020202EB2E4201EBB7
:1037F000025585EACE710AD05FEA440C18BF24F066
:10380000004450F1000041F1000120EAD47040F280
:10381000FE7C624500D270BDA84214BF4FF08044C8
:103820004FF04044002E08BF0024BEF1806FA8BFB7
:10383000A1F1C041BDE8704080F282804FF00000ED
:1038400001F1C04101F0004170479EEA0C0F0CEA03
:10385000131518BF95EA0C0F06D04FF0000081EA4F
:10386000030E0EF0004170BD00F01CF88900013E0F
:1038700000F007B800F009B84FEA430C5FEA5C5C5F
:1038800008D081EA030100F05BB84FEA410C5FEA1F
:103890005C5CF6D14FF00000014970470000FF0763
:1038A0000000F87F0EF1020E2EF0030E5EF8046B9E
:1038B000364205D4012A43EB030515F5001F12D843
:1038C000012841EB010C1CF5001F0CD80ED14FEA6A
:1038D000D17C15F5001F0CEB4C0C0CF1020C08BF51
:1038E0004CEBD37C04E04FF0080C01E04FEAD37CB2
:1038F0000CEB4C0526FA05F606F00706B6F1040CAB
:1039000006D20EEB860CBDE870404CF0010C60470F
:10391000DFE80CF0090B02024FF000414FF000000D
:10392000A1F5002170BD19461046012851EB010494
:1039300018BFD4F5001484BF002001F0004170BD11
:103940000808A0F500114FEA3101704753EA010C55
:1039500017D41CF5801F58BFBCF5801F00F10680EE
:103960008B4218BF704708BF8242704707D713F5D4
:10397000801F58BF11F5801F19D48B4270479B429E
:1039800070471CF5801F08D5BCF5801FF7D59942FC
:1039900018BF704708BF904270474FF4001C1CEBE3
:1039A000430F38BF1CEB410F01D2994270470FB44F
:1039B0000CBC03BCFFF7C1BE10B591EA030F48BFB2
:1039C00083F000433FF56CAC841A71EB030C07D213
:1039D00012198CF0004C43EB0C03001B61EB0C0143
:1039E000DFF8A4E14FEA1154A4EB135C1EEA430F85
:1039F00018BF9EEA445F00F0B08023EA6E03524293
:103A000021EA0451C3EB6E0338BF5B1EDCF1200ECC
:103A100025D322FA0CFE10EB0E0043FA0CFE41EB0C
:103A20000E01CCF1200E03FA0EFE10EB0E0051F148
:103A30000001CCF1200E29D412FA0EF201EB045150
:103A4000BDE8104058BF7047401C1CBFB2F1004F8A
:103A5000704700280CBF491C20F00100704712EB92
:103A6000020E43EB030218BF4FF0010E4EEA420272
:103A7000ACF1200CDCF11E0E54D943FA0CFE10EB15
:103A80000E0051F1FF31CCF11E0ED5D50EF1010E15
:103A900012FA0EFE404141EB010101EB445C5FEA8A
:103AA0005C5C10D910EBDE7001EB045138BFBEF145
:103AB000004FBDE8104018BF704700280CBF491CDC
:103AC00020F00100704730D24FEAD42C11F50011DC
:103AD00024F400641BD0B1FA81F20B3AA41AA41E9C
:103AE000D2F12003914030FA03F31943904001EBE7
:103AF000CC71002C01EB0451BDE81040A8BF704709
:103B000001F1C0414FF0000001F000417047B0FAF0
:103B100080F310FA03F100D110BDE41A173C4805F8
:103B2000C90AE4E701EB045110BD491001EB04514F
:103B3000BDE810404FEA300002E04FF0000170474E
:103B40004A0008BF0042F8D0B2F5001F28BF7047F6
:103B500001F000414FF0000070479EEA445F07D03B
:103B600011EA5E0FBDE8104004BF0021002070473D
:103B7000BDE8104070B5FFF795FE00BF40DFF63E90
:103B800083F00041104670470000E0FF43004FEA19
:103B9000D30C4FEA3C0C43401FBF40070CF160516F
:103BA00013F0FE4F70471CF0006F03D100200CF0A3
:103BB000004170470CF0004343EA507010B540EAF2
:103BC000CC0000F06EF900BF000000924FEA000147
:103BD000FFF7B6BE4FF000414FF00000A1F5002105
:103BE0007047000090EA010F48BF81F0004100F1EA
:103BF000DC81421A3CBF801A89184FEAD0524FF03C
:103C00007F4C1CEA410FA2EBD15318BF9CEA026F14
:103C100000F03B804FF0004C4CEA00204CEA0121C0
:103C200021FA03FC10EB0C0C1ED202F1FF325FEA0A
:103C30001C2040EBC25038BF70471CF07F0F4FEA8A
:103C4000400C18BFBCF17F4F38BF7047C3F1200351
:103C5000994008BF20F00100BCF17F4F38BF70478A
:103C6000A0F1C04000F063B94FEA3C00000A40EB0D
:103C7000C25028BF1CF0FF0F4FEA400CE6D018BF1F
:103C8000BCF17F4F38BF7047EAE79CEA026F05D06E
:103C900010EA5C0F08BF00F00040704710B500F05C
:103CA00000F900BF64FBBE3E401058BFC0F1404069
:103CB000491058BFC1F140418142EFF30080704785
:103CC00041000B0ED3F19E0208D950F400034FEAD5
:103CD000032323FA02F048BF4042704710B500F0BA
:103CE000E0F800BF49922480002070476FF0004246
:103CF00082EA200070470000C10DD1F19E0206DB70
:103D00004FEA002343F0004323FA02F070470042D9
:103D100007D54FEA4001B1F1FE4F02D24FF000004B
:103D2000704710B500F0BDF849922480002070471C
:103D30006FEA20007047000050EA010C00F1138088
:103D40001CF5000F58BFBCF5000F01D48842704726
:103D500007D710F5000F58BF11F5000F15D4884292
:103D60007047894270471CF5000F04D5BCF5000F61
:103D7000F7D5814270474FF0807C1CEB400F38BF75
:103D80001CEB410F01D28142704710B500F089F859
:103D9000922449004FF000504FF08051FFF784BF4C
:103DA0004FF47F0C1CEAD0121EBF1CEAD11392EA1A
:103DB0000C0F93EA0C0F00F0478090EA010F48BF08
:103DC00042F480724FF0004C4CEA00204CEA012192
:103DD00002EB0302A0FB0113A2F50002002918BFA9
:103DE00043F001035B0028BF4FEA330342EB22425A
:103DF0005FEA132C4CEBC2502EBFBCEB436FB2F505
:103E00007C0F70474FEA036CBCF1004F08BF20F0F5
:103E10000100B2F57C0F38BF70470BD582F0FF026E
:103E200012F5803FC8BF704700F1C040D8BF00F016
:103E30000040704700F5000C5FEA4C0C48BF70472B
:103E4000B0F1C04000F073B890EA010F0CEAD11352
:103E500048BF42F48072624538BF634504D280EAAD
:103E6000010000F00040704710B500F01AF800BFE4
:103E70008900013E00F007B800F009B85FEA410C84
:103E80005FEA1C6C08D080EA010000F050B85FEADD
:103E9000400C5FEA1C6CF6D14FF00040A0F58000AA
:103EA00070470EF1020E2EF0030E5EF8044B244212
:103EB00004D44FEA4102B2F17F4F11D84FEA4003D8
:103EC000B3F17F4F0CD80ED14FEAD07CB2F17F4FC7
:103ED0000CEB4C0C0CF1020C08BF4CEBD17C04E059
:103EE0004FF0080C01E04FEAD17C0CEB4C0324FAB4
:103EF00003F404F00704B4F1040C06D20EEB840CB6
:103F0000BDE810404CF0010C6047DFE80CF00708FA
:103F100002024FF00040A0F5800010BD08464200AC
:103F200018BFD2F1807288BF00F0004010BDFF21A1
:103F300041EAD050C005704751EA000C00F11380EF
:103F40001CF5000F58BFBCF5000F01D4814270472B
:103F500007D711F5000F58BF10F5000F15D4814297
:103F60007047894270471CF5000F04D5BCF5000F5F
:103F7000F7D5884270474FF0807C1CEB410F38BF6B
:103F80001CEB400F01D28842704780EA010081EAB1
:103F9000000180EA0100FFF7F8BE000090EA010F7F
:103FA00048BF81F000413FF524AE421A04D882F0A8
:103FB0000042A0EB020011444FEAD0524FF07F4C78
:103FC0001CEA410FA2EBD15318BF9CEA026F4AD002
:103FD0004FF0004C4CEA00204CEA012121FA03FC8E
:103FE000B0EB0C0C0FD412F0FE0F36D05FEA4C0091
:103FF0001DD5001240EBC25038BF70471CF03F0F78
:1040000018BF70470BE0A2F101025FEA1C2040EBF1
:10401000C25038BF70471CF07F0F18BF7047C3F104
:104020002003994014BF401E20F001007047800813
:104030004FEA122308BF7047B0FA80FCA2EB0C02D3
:10404000CCF1280C60FA0CF093EA122F04BF00EBBD
:10405000C25070474FEAC3707047130A5FEADC1022
:1040600008BF7047F6E79CEA026F04D010EA5C0FC5
:1040700008BF0020704710B5FFF713FF40DFF63E82
:1040800081F0004070470000000000000000002F99
:10409000000000000700070000147F147F140024B4
:1040A0002A7F2A12006264081323003649552250E1
:1040B00000000503000000001C2241000000412216
:1040C0001C000014083E08140008083E0808000000
:1040D00000A06000000808080808000060600000F8
:1040E000002010080402003E5149453E0000427F76
:1040F0004000004261514946002141454B310018C2
:1041000014127F10002745454539003C4A49493083
:10411000000171090503003649494936000649493D
:10412000291E000036360000000056360000000848
:104130001422410000141414141400004122140825
:1041400000020151090600324959513E007C12110A
:10415000127C007F49494936003E41414122007F9F
:104160004141221C007F49494941007F0909090159
:10417000003E4149497A007F0808087F0000417FDE
:104180004100002040413F01007F08142241007F90
:1041900040404040007F020C027F007F0408107FF7
:1041A000003E4141413E007F09090906003E415160
:1041B000215E007F0919294600464949493100011D
:1041C000017F0101003F4040403F001F2040201F71
:1041D000003F4038403F0063140814630007087034
:1041E000080700615149454300007F4141000055E7
:1041F0002A552A55000041417F00000402010204B3
:10420000004040404040000001020400002054549F
:104210005478007F484444380038444444200038EF
:104220004444487F00385454541800087E09010261
:104230000018A4A4A47C007F080404780000447D36
:104240004000004080847D00007F10284400000072
:10425000417F4000007C04180478007C0804047846
:1042600000384444443800FC242424180018242432
:1042700018FC007C0804040800485454542000042E
:104280003F444020003C4040207C001C2040201C3B
:10429000003C4030403C004428102844001CA0A0B2
:1042A000A07C004464544C441414141414140000EE
:1042B00000000000000000000000000000000000FE
:1042C00000F8000000000000003330000000001083
:1042D0000C06100C0600000000000000000040C0AA
:1042E0007840C0784000043F04043F04040000709C
:1042F00088FC08300000001820FF211E0000F00894
:10430000F000E018000000211C031E211E0000F038
:104310000888700000001E21232419272110101680
:104320000E0000000000000000000000000000007F
:1043300000E01804020000000007182040000002FE
:104340000418E00000000040201807000000404072
:1043500080F0804040000202010F010202000000D4
:1043600000F0000000000101011F01010100000038
:1043700000000000000080B070000000000000009D
:104380000000000000000001010101010101000026
:1043900000000000000000303000000000000000BD
:1043A000000080601804006018060100000000E0B2
:1043B00010080810E000000F102020100F0000105F
:1043C00010F8000000000020203F202000000070B6
:1043D00008080888700000302824222130000030AE
:1043E0000888884830000018202020110E000000A6
:1043F000C02010F8000000070424243F240000F827
:104400000888880808000019212020110E0000E00B
:10441000108888180000000F112020110E000038AD
:104420000808C83808000000003F000000000070C5
:10443000880808887000001C222121221C0000E04E
:1044400010080810E0000000312222110F000000C7
:1044500000C0C0000000000000303000000000007C
:1044600000800000000000008060000000000000EC
:104470008040201008000001020408102000404085
:1044800040404040400004040404040404000008C8
:10449000102040800000002010080402010000707D
:1044A00048080808F0000000003036010000C03065
:1044B000C828E810E0000718272423140B00000088
:1044C000C038E0000000203C23020227382008F812
:1044D000888888700000203F202020110E00C03006
:1044E000080808083800071820202010080008F8DD
:1044F00008080810E000203F202020100F0008F8D6
:104500008888E8081000203F20202320180008F8A1
:104510008888E8081000203F200003000000C03019
:1045200008080838000007182020221E020008F89A
:1045300008000008F808203F210101213F20000861
:1045400008F8080800000020203F2020000000009C
:104550000808F8080800C08080807F00000008F884
:1045600088C028180800203F20012638200008F8BD
:10457000080000000000203F20202020300008F824
:10458000F800F8F80800203F003F003F200008F83E
:1045900030C00008F808203F200007183F00E01056
:1045A00008080810E0000F10202020100F0008F865
:1045B00008080808F000203F210101010000E01078
:1045C00008080810E0000F18242438504F0008F89D
:1045D000888888887000203F2000030C30200070FD
:1045E0008808080838000038202121221C001808FB
:1045F00008F8080818000000203F2000000008F814
:1046000008000008F808001F202020201F0008785C
:10461000880000C83808000007380E010000F808BC
:1046200000F80008F800033C0700073C03000818E6
:1046300068808068180820302C03032C302008384C
:10464000C800C83808000000203F20000000100803
:104650000808C8380800203826212020180000004B
:1046600000FE020202000000007F40404000000CFB
:1046700030C000000000000000010638C000000249
:104680000202FE000000004040407F0000000000E9
:10469000040202020400000000000000000000000C
:1046A0000000000000008080808080808080000208
:1046B00002040000000000000000000000000000F4
:1046C0008080808000000019242222223F2008F8E8
:1046D000008080000000003F112020110E0000002B
:1046E000008080800000000E1120202011000000BA
:1046F00000808088F800000E112020103F2000006C
:10470000808080800000001F22222222130000806F
:1047100080F0888888180020203F202000000000BA
:10472000808080808000006B94949493600008F8EF
:10473000008080800000203F210000203F2000807A
:104740009898000000000020203F2020000000007A
:1047500000809898000000C08080807F000008F8EA
:10476000000080808000203F24022D3020000008BF
:1047700008F8000000000020203F2020000080807A
:10478000808080808000203F20003F20003F80808C
:10479000008080800000203F210000203F2000009A
:1047A000808080800000001F202020201F0080804B
:1047B00000808000000080FFA12020110E0000007A
:1047C000008080808000000E112020A0FF8080806B
:1047D00080008080800020203F2120000100000018
:1047E00080808080800000332424242419000080ED
:1047F00080E0808000000000001F202000008080FA
:10480000000000808000001F202020103F208080BA
:1048100080000080808000010E300806010080804A
:104820000080008080800F300C030C300F0000806F
:104830008000808080000020312E0E31200080809A
:1048400080000080808080818E70180601000080CA
:104850008080808080000021302C222130000000E8
:104860000000807C020200000000003F4040000089
:104870000000FF00000000000000FF000000000238
:10488000027C800000000040403F00000000000665
:10489000010102020404000000000000000000000A
:1048A000C048000800000020580700006C01000804
:1048B000A04E00085807002098060000D00100080C
:1048C000220001830100016004A24A040B60090177
:1048D0000203040607080923100A71160008D719F5
:1048E00000086D0420091060028C0000FE92011285
:1048F000FE1C100A04047E01407E42427E02100427
:10490000427E40492009FC242424FC25262408302A
:1049100021040040308F80844C55252525554C803E
:10492000808000008060F80704E4A4A4BFA4A4E48D
:1049300004602006FF40407F4A01137F4040100979
:1049400020222C2020E03F200112E097100E804012
:10495000201008060100014680403F8C200D1010F9
:10496000D0FF9014E4AFA4A4A4AF4010100403003F
:10497000FF00894B2A1A0E1A2A4B888020229001A8
:1049800010091010FF101011161050400E60203F3B
:1049900010101000030C102040F88011102004D0DB
:1049A000FFD0163180200F1008040B08FF080B04FD
:1049B000081000403C3A100820108F7808F8082FA3
:1049C000300D020602FF0101044221184681816078
:1049D0000400FC040136FC39637F2001227F0F10A4
:1049E0000E0E8A8A8A8E8AFAAAAEAAAAAA2ECF1098
:1049F00004202F2A0122FA0540042F2020C010098C
:104A00005020504C434C5020F031C01009414458C4
:104A1000414E6058471035601008FE02F202FE0059
:104A2000F81A3560640B8047300F10270047807FED
:104A3000AD5404C03FC0B72520170C038931E015E1
:104A4000606007FE2222FE004061600900807F0254
:104A500082FF00406111206004020202042202BFB2
:104A600012402B100E404040474848484F4000F24B
:104A700012FE021004F200840121E0100AFF4A49EC
:104A8000484949FF003F231404414070D0100611EB
:104A9000969090910434079814135030000934060E
:104AA00044847E0605171531200602021222C25DDB
:104AB00011C3151010040818081944040202413FDC
:104AC000120457138484D7100584E41C8430159F86
:104AD00020071F1010040201ED3404010600B92460
:104AE0000920A4ACB5A6B4ACA430140F301F0888BC
:104AF000804F3A0A0A7A8A8F80E0E01121100A90EA
:104B000000FE82828292A29E50280444827F44103A
:104B10001880432C102C43800012EAAFAAEA0FFA47
:104B200002888C5724548C848F1005EAAAAAAB0201
:104B3000110122EAF1300CF80122A0A2A222FE22E9
:104B4000AA32A1100DFF0010130A4B20170C1338C6
:104B50008083091FA0230202DD21801382824F156A
:104B60003A527F0421011C1100201808EAACA8A8C1
:104B7000AFA8A8ACEA0828183E03263E0B26FF166D
:104B8000261E10251934078242F20E428280197CBB
:104B900011FC21FD1D77031A0CE01F0C0440031DBE
:104BA0003F032D3E03121411280E818141310F0164
:104BB00001017F818181F18013F888011A08B0100A
:104BC00005090AC808AF18111F0010201F804021D6
:104BD00016182641F8000808B83F080800031F10FF
:104BE000F03003173010414C0648300E01404103AD
:104BF0001E205003200614678444245D2DC003202A
:104C0000070402FE43434201250F61802005A4648E
:104C100024048035C9300442827F0821B12C050864
:104C20003000FF9D0311051DAA031140100602016B
:104C3000FF8040603B06188015E11C0A4424548F15
:104C40001424448484A0031415413900003C4040DE
:104C5000424C404070040931002030AC6324196D8F
:104C60001A7F71700B080022672212121200FE8157
:104C70004D5D045EFE5F042C110044442425140C99
:104C800004FF040C142524444420031ACCF4121EFF
:104C900096263E703D20032C0980834D51215149B9
:104CA00087600419781C06F28A4600E057031E202C
:104CB000250329791E7F26043E403D035B07007FC4
:104CC00026FF6012FFA0296028140800884F2909D8
:104CD00009294F88080008C8B88FE88888D82DE9C6
:104CE0000329BF140508FF0404811E010804100AEB
:104CF0000100082848890E88783436F8B61D7F03ED
:104D00001405090619603A320F632B80886A100473
:104D1000AAFEA9011EE990042C0E40402222120A8C
:104D200006FF060A122223E00416088E140728182C
:104D3000FF182848C5100600008242318510046023
:104D40000710431711E2603007027A4A4A7E4A048C
:104D50002E7AA0032C0C80809F4141211D0121212E
:104D60005FDF03100B222AAAFFAAAAA280A2AA0828
:104D70001B2A2200200C080A6A8A8A9AAA8A8ACAEE
:104D80000FF12806FE12628272DA41A01F00FF3E78
:104D900005224E9A41A01D5C04200B22DA0600E297
:104DA00022322E2222703808FF0810080700FF0167
:104DB00011D015CB3E1E6403310129E0359A327FB4
:104DC000062DA0052D400528084020180F08C8080A
:104DD000E039BC1D820421FD19033D110542490142
:104DE0003D0F051281BC2006214181FF89011C076E
:104DF00081810080908C5A042FF58660042F948C5A
:104E00001006280A808446492810102C233E110FD2
:104E10001DBC041C064844C344481F052D30061021
:104E20000440404401227F052D7F03180500F80C43
:104E30000BE31D570629EA2DC00412210121D94E8A
:104E40004321062D80062405A4643DA6E13D80068D
:104E500018040F10136212FF042E12F10550040003
:104E6000E28201496E3DDA0451014F780080053C31
:104E70000B24242FE42424E42F2424E006200B0018
:104E8000FF1109071909074991689F0C4236073D30
:104E90002C076D3007000500020406080000000022
:0400000508000131BD
:00000001FF
